:020000040800F2
:100000000000012085070008D5070008D507000873
:10001000D5070008D5070008D50700080000000034
:10002000000000000000000000000000D5070008EC
:10003000D507000800000000D50700086D0500087E
:10004000D5070008D5070008D5070008D507000820
:10005000D5070008D5070008D5070008D507000810
:10006000D5070008D5070008D5070008D507000800
:10007000D5070008D5070008D5070008D5070008F0
:10008000D5070008D5070008D507000800000000C4
:10009000000000000000000000000000D50700087C
:1000A000D5070008D5070008D5070008D5070008C0
:1000B000D5070008BD050008D5070008D5070008CA
:1000C000D5070008D5070008D5070008D5070008A0
:1000D000D5070008D5070008D50700080000000074
:1000E000D5070008D5070008D50700080000000064
:1000F000000000000000000000000000D50700081C
:1001000000000000D5070008D5070008D507000843
:1001100000000000000000000000000000000000DF
:10012000D5070008D5070008D5070008D50700083F
:10013000D5070008000000000000000000000000DB
:10014000000000000000000000000000D5070008CB
:10015000D5070008D5070008D5070008D50700080F
:10016000D5070008D50700080000000000000000C7
:10017000000000000000000000000000000000007F
:1001800000000000D507000800000000000000008B
:04019000D507000887
:100194000348044B834202D0034B03B11847704712
:1001A40034040020340400200000000005480649FF
:1001B4000B1AD90F01EBA301491002D0034B03B171
:1001C4001847704734040020340400200000000065
:1001D40010B5064C237843B9FFF7DAFF044B13B18B
:1001E4000448AFF300800123237010BD34040020C1
:1001F40000000000EC07000808B5044B1BB10449DB
:100204000448AFF30080BDE80840CFE700000000D9
:1002140038040020EC070008002301461A4618465B
:1002240000F03AB838B5084B084D5B1B9C1007D05A
:10023400043B1D44013C55F804399847002CF9D17E
:10024400BDE8384000F0D6BA2408000820080008A9
:1002540070B50D4E0D4D761BB61006D0002455F822
:10026400043B01349847A642F9D1094E094D761B47
:1002740000F0BAFAB61006D0002455F8043B013455
:100284009847A642F9D170BD18080008180800085C
:10029400200800081808000870B4184C2568D5F820
:1002A40048411CB365681F2D25DC38B9AB1C0135EA
:1002B400656044F82310002070BC704704EB850C83
:1002C4000228CCF88820D4F888614FF0010202FAA1
:1002D40005F246EA0206C4F88861CCF80831E5D193
:1002E400D4F88C311343C4F88C31DFE705F5A674D8
:1002F400C5F84841D6E74FF0FF30DDE704080008B1
:1003040080B500AF00F060F900F0FCF900F020F9CE
:1003140000F014FA4FF4FA7000F038F90A4B1B8B12
:100324009BB2094A43F400539BB213834FF4FA700F
:1003340000F02CF9044B5B8B9BB2034A43F400534B
:100344009BB25383E6E700BF0008024080B400AFCD
:10035400164BD3F88830154A43F47003C2F888303A
:10036400134B1B68124A43F001031360104B002225
:100374009A600F4B1B680E4A23F0847323F4803376
:1003840013600B4B0B4A5A60094B1B68084A23F451
:1003940080231360064B0022DA60044B4FF00062A6
:1003A4009A6000BFBD465DF8047B704700ED00E035
:1003B400003802401030002480B487B000AF00231E
:1003C4003B6100237B610223FB600023BB600223AB
:1003D4007B60344B9B6803F00C033B613B69082B47
:1003E40011D03B69082B44D83B69002B03D03B69EF
:1003F400042B04D03DE02C4B2C4A1A603DE02A4BE0
:100404002B4A1A6039E0274B5B689B0D03F001030C
:10041400BB60244B5B6803F03F037B60BB68002B2D
:100424000CD0234A7B68B2FBF3F31E4A526892094C
:10043400C2F3080202FB03F37B610BE01B4A7B68F7
:10044400B2FBF3F3174A52689209C2F3080202FBA3
:1004540003F37B61134B5B681B0C03F00303013351
:100464005B00FB607A69FB68B2FBF3F30E4A13602E
:1004740003E00D4B0D4A1A6000BF0A4B9B681B0931
:1004840003F00F030B4AD35C3B61074B1A683B69CB
:1004940022FA03F3044A136000BF1C37BD465DF81B
:1004A400047B704700380240300400200024F4002C
:1004B40040787D010808000880B483B000AF03468B
:1004C4003960FB7197F90730002B0BDA3B68DAB21D
:1004D4000C49FB7903F00F03043B1201D2B20B4425
:1004E4001A7609E03B68DAB2074997F90730120136
:1004F400D2B20B4483F8002300BF0C37BD465DF82D
:10050400047B704700ED00E000E100E080B582B0BC
:1005140000AF78607B68013BB3F1807F01D3012396
:100524000FE00A4A7B68013B53600F214FF0FF3014
:10053400FFF7C2FF054B00229A60044B07221A60A2
:10054400002318460837BD4680BD00BF10E000E018
:1005540080B500AFFFF730FF0248FFF7D7FF00BFB9
:1005640080BD00BF1F48010080B400AF064B1B686C
:10057400002B04D0044B1B68013B034A136000BFEB
:10058400BD465DF8047B70475004002080B483B0FE
:1005940000AF7860074A7B68136000BF054B1B6897
:1005A400002BFBD100BF00BF0C37BD465DF8047BB8
:1005B400704700BF5004002080B400AF00BFBD46A8
:1005C4005DF8047B7047000080B582B000AF4A4BF1
:1005D4001B68494A43F4E06343F002031360474B4A
:1005E4005B687B60454B1B68444A43F4803313606B
:1005F40000BF424B1B6803F40033002BF9D07B6827
:1006040043F480037B603D4B1B683C4A23F08073BA
:1006140013607B6823F03F037B607B6843F019031E
:100624007B607B6823F4FF4323F040037B607B689B
:1006340043F480637B607B6843F480537B607B6816
:1006440043F480437B607B6823F440337B607B68A6
:1006540043F480337B607B6823F070637B607B684A
:1006640043F080637B60254A7B685360234B9B681F
:100674003B603B6823F0F0033B603B6823F4E053AA
:100684003B603B6843F480533B603B6823F4604326
:100694003B601A4A3B689360184B1B68174A43F047
:1006A4008073136000BF154B1B6803F00073002BAD
:1006B400F9D0124B9B68114A23F0030393600F4B4C
:1006C4009B680E4A43F00203936000BF0B4B9B6888
:1006D40003F00803002BF9D0094B4FF400421A60D1
:1006E400064B1B68054A23F001031360FFF764FE01
:1006F40000BF0837BD4680BD003C024000380240C0
:100704000070004080B400AF0B4B1B6B0A4A43F0EF
:1007140001031363084B1B6B074A43F00203136383
:10072400054B1B6B044A43F00403136300BFBD462F
:100734005DF8047B704700BF0038024080B400AF0E
:100744000E4B1B680D4A43F0806313600B4B5B68D0
:100754000A4A23F400535360084B9B68074A43F04A
:1007640040639360054BDB68044A43F08063D360C5
:1007740000BFBD465DF8047B704700BF000802401F
:10078400DFF834D0002103E00C4B5B5843500431B4
:100794000B480C4B42189A42F6D30B4A02E0002352
:1007A40042F8043B094B9A42F9D3FFF7CFFDFFF718
:1007B4004FFDFFF7A5FD7047000001202408000845
:1007C40000000020340400203404002054040020DD
:1007D400FEE70000024B13B10248FFF71DBD70474E
:1007E4000000000029020008F8B500BFF8BC08BCEE
:1007F4009E467047F8B500BFF8BC08BC9E467047DB
:1008040008000020000000000000000001020304B2
:0408140006070809C2
:08081800D9070008FD010008EA
:04082000D5010008F6
:10082400080000200000000000000000F402002086
:100834005C030020C403002000000000000000004E
:1008440000000000000000000000000000000000A4
:100854000000000000000000000000000000000094
:100864000000000000000000000000000000000084
:100874000000000000000000000000000000000074
:100884000000000000000000000000000000000064
:100894000000000000000000000000000000000054
:1008A4000000000000000000000000000000000044
:1008B4000000000000000000000000000000000034
:1008C4000000000000000000000000000000000024
:1008D40001000000000000000E33CDAB34126DE6C1
:1008E400ECDE05000B00000000000000000000002A
:1008F40000000000000000000000000000000000F4
:1009040000000000000000000000000000000000E3
:1009140000000000000000000000000000000000D3
:1009240000000000000000000000000000000000C3
:040C54000024F40084
:040000050800078563
:00000001FF
