:020000040800F2
:100000000000012059030008A9030008A903000803
:10001000A9030008A9030008A903000800000000C4
:10002000000000000000000000000000A90300081C
:10003000A903000800000000A9030008A9030008A4
:10004000A9030008A9030008A9030008A9030008E0
:10005000A9030008A9030008A9030008A9030008D0
:10006000A9030008A9030008A9030008A9030008C0
:10007000A9030008A9030008A9030008A9030008B0
:10008000A9030008A9030008A90300080000000054
:10009000000000000000000000000000A9030008AC
:1000A000A9030008A9030008A9030008A903000880
:1000B000A9030008A9030008A9030008A903000870
:1000C000A9030008A9030008A9030008A903000860
:1000D000A9030008A9030008A90300080000000004
:1000E000A9030008A9030008A903000800000000F4
:1000F000000000000000000000000000A90300084C
:1001000000000000A9030008A9030008A9030008D3
:1001100000000000000000000000000000000000DF
:10012000A9030008A9030008A9030008A9030008FF
:10013000A90300080000000000000000000000000B
:10014000000000000000000000000000A9030008FB
:10015000A9030008A9030008A9030008A9030008CF
:10016000A9030008A9030008000000000000000027
:10017000000000000000000000000000000000007F
:1001800000000000A90300080000000000000000BB
:04019000A9030008B7
:100194000348044B834202D0034B03B11847704712
:1001A4003004002030040020000000000548064907
:1001B4000B1AD90F01EBA301491002D0034B03B171
:1001C400184770473004002030040020000000006D
:1001D40010B5064C237843B9FFF7DAFF044B13B18B
:1001E4000448AFF300800123237010BD30040020C5
:1001F40000000000C003000808B5044B1BB104490B
:100204000448AFF30080BDE80840CFE700000000D9
:1002140034040020C0030008002301461A4618468F
:1002240000F03AB838B5084B084D5B1B9C1007D05A
:10023400043B1D44013C55F804399847002CF9D17E
:10024400BDE8384000F0C0B8E8030008E403000843
:1002540070B50D4E0D4D761BB61006D0002455F822
:10026400043B01349847A642F9D1094E094D761B47
:1002740000F0A4F8B61006D0002455F8043B01346D
:100284009847A642F9D170BDDC030008DC030008DE
:10029400E4030008DC03000870B4184C2568D5F8A2
:1002A40048411CB365681F2D25DC38B9AB1C0135EA
:1002B400656044F82310002070BC704704EB850C83
:1002C4000228CCF88820D4F888614FF0010202FAA1
:1002D40005F246EA0206C4F88861CCF80831E5D193
:1002E400D4F88C311343C4F88C31DFE705F5A674D8
:1002F400C5F84841D6E74FF0FF30DDE7D8030008E2
:10030400002070471049114BD1F8882042F4700244
:1003140010B4C1F888201A680D4C002042F0010284
:100324001A6098601A6822F0847222F480321A608B
:100334005C601A684FF0006422F480221A60D8606E
:100344008C605DF8044B704700ED00E0003802401B
:1003540010300024DFF834D0002103E00C4B5B584C
:10036400435004310B480C4B42189A42F6D30B4AC3
:1003740002E0002342F8043B094B9A42F9D3FFF709
:10038400C1FFFFF765FFFFF7BBFF704700000120C7
:10039400E80300080000002030040020300400209E
:1003A4004C040020FEE70000024B13B10248FFF7A3
:1003B40033BF70470000000029020008F8B500BFF1
:1003C400F8BC08BC9E467047F8B500BFF8BC08BC32
:0403D4009E4670478A
:0403D80008000020F9
:0803DC00AD030008FD0100085B
:0403E400D501000837
:1003E800080000200000000000000000F4020020C7
:1003F8005C030020C403002000000000000000008F
:1004080000000000000000000000000000000000E4
:1004180000000000000000000000000000000000D4
:1004280000000000000000000000000000000000C4
:1004380000000000000000000000000000000000B4
:1004480000000000000000000000000000000000A4
:100458000000000000000000000000000000000094
:100468000000000000000000000000000000000084
:100478000000000000000000000000000000000074
:100488000000000000000000000000000000000064
:1004980001000000000000000E33CDAB34126DE601
:1004A800ECDE05000B00000000000000000000006A
:1004B8000000000000000000000000000000000034
:1004C8000000000000000000000000000000000024
:1004D8000000000000000000000000000000000014
:1004E8000000000000000000000000000000000004
:040000050800035993
:00000001FF
